:020000040000FA
:100000002028A0018400A00A840A840B0828A00BE1
:100010000A280800FA30FF3E0D280E28031D0B2881
:10002000052806141E30012006101E30012008008D
:1000300006140530A000DC30022006106300080022
:1000400083160610831206102114211C2928112062
:100050002A281820A114A11C2F281120302818208C
:100060000130A2002203031D372811203828182050
:100070002030A30020302302031D402811204128F6
:100080001820A5010130A4002508031D48282403D9
:10009000031D4C2811204D281820A901A801A701F3
:1000A0000130A6002908031D5C282808031D5C28D0
:1000B0002708031D5C282603031D602811206128E2
:1000C00018202115211D6628112067281820A11548
:1000D000A11D6C2811206D2818200130AC002C03C4
:1000E000031D74281120752818202C0AAC0002303A
:1000F0002C02031D7D2811207E2818202030AD0001
:1001000020302D02031D8628112087281820AF01DA
:100110000130AE002F08031D8E282E03031D9228E8
:10012000112093281820B301B201B1010130B000B1
:100130003308031DA2283208031DA2283108031D1D
:10014000A2283003031DA6281120A7281820B301D8
:10015000B2010330B100E830B0003308031DB92804
:100160003208031DB92803303102031DB928E830D5
:100170003002031DBD281120BE281820AE01AF019A
:100180000130AC002C08053C031CD1282F08A0002E
:1001900001302E070318A00AAE002008AF00AC0AF9
:1001A000C2282F08031DD62805302E02031DDA2889
:1001B0001120DB281820B401B408031DE128112008
:1001C000E2281820FF30B500350A031DE928112068
:1001D000EA2818200530B8003808B4000530340289
:1001E000031DF4281120F52818208530B4003408A8
:1001F000B50085303502031DFF2811200029182085
:100200003408103EB50095303502031D0929112030
:100210000A29182010303402B50075303502031D4C
:100220001329112014291820B50AB5037530350299
:10023000031D1C2911201D2918202330B800383037
:10024000B4001230B9003930B50034088400000819
:10025000233C031D2D2911202E2918203408840049
:10026000FF308000380A031D372911203829182053
:100270002330B800340884000008BE00350884002C
:100280003E08800023303902031D482911204929E6
:1002900018203830B400340884000008B900380849
:1002A0003902031D55291120562918201230B80093
:1002B000340884000008123C031D602911206129C4
:1002C0001820340884000008013E133C031D6A29ED
:1002D00011206B291820340884000008013C003CE0
:1002E000113C031D7529112076291820340884003B
:1002F0000008BF003408840000083F07243C031DA9
:1003000083291120842918203408840000080F391B
:10031000023C031D8D2911208E2918201230B900AE
:10032000340A84000008123C031D982911209929E1
:100330001820340A84000008013E133C031DA22942
:100340001120A3291820340A84000008013C003C35
:10035000113C031DAD291120AE291820340A840058
:1003600000080F39023C031DB7291120B8291820B5
:10037000B601B608031DBE291120BF291820FF3081
:10038000B700370A031DC6291120C72918200530D8
:10039000B8003808B60005303602031DD1291120F7
:1003A000D22918208530B6003608B70085303702CC
:1003B000031DDC291120DD2918203608103EB70066
:1003C00095303702031DE6291120E7291820103047
:1003D0003602B70075303702031DF0291120F129CC
:1003E0001820B70AB70375303702031DF929112009
:1003F000FA291820BB012330BA003A30B600BD01FB
:100400001230BC003C30B700360A84000008A0005F
:1004100084030008BE0000302002031D112A23308F
:100420003E02031D152A1120162A182036088400C2
:10043000FF308000840A80013B08031D202A3A0A0D
:10044000031D242A1120252A1820BB012330BA00BD
:10045000360A84000008A00084030008BE003708A4
:1004600084003E0880002008840A80003D08031DA7
:100470003B2A23303C02031D3F2A1120402A18202A
:100480003A30B600360A84000008A0008403000851
:10049000BC002008BD003B083D02031D512A3A085C
:1004A0003C02031D552A1120562A1820BB01123088
:1004B000BA00360A84000008A00084030008BE00C9
:1004C00000302002031D662A12303E02031D6A2AF4
:1004D00011206B2A1820360A84000008A00084032B
:1004E0000008BE000030A00701303E070318A00A34
:1004F000BE0000302002031D7F2A13303E02031D80
:10050000832A1120842A1820360A84000008A000BB
:1005100084030008BE000030A00201303E02031C2C
:10052000A003BE0000302002031D982A11303E02B5
:10053000031D9C2A11209D2A1820360A84000008D9
:10054000A00084030008BF002008C000360A840011
:100550000008A00084030008BE004008A0073F0870
:100560003E070318A00ABE0000302002031DBA2A6D
:1005700024303E02031DBE2A1120BF2A182063002A
:00000001FF
;PIC16F877A
