:020000040000FA
:100000002028A0018400A00A840A840B0828A00BE1
:100010000A280800FA30FF3E0D280E28031D0B2881
:10002000052806141E30012006101E30012008008D
:1000300006140530A000DC30022006106300080022
:10004000831606108312061011201120A2016430BD
:10005000A10001302207A000013021070318A00AE7
:10006000A80001302002031D372865302802031D37
:100070003B2811203C281820A2016430A10022084E
:10008000A000013021070318A00AA8000130A00732
:10009000003028070318A00AA80001302002031D21
:1000A000532865302802031D57281120582818208E
:1000B000A2016430A10001302207A0000130210715
:1000C0000318A00AA80001302002031D692865302A
:1000D0002802031D6D2811206E281820A101A201FD
:1000E000A3010130A40022082407A000210823074F
:1000F0000318A00AA80001302002031D8128003047
:100100002802031D8528112086281820E830A10028
:100110000330A200A3010130A40022082407A0009C
:10012000210823070318A00AA80004302002031D99
:100130009B28E8302802031D9F281120A0281820A2
:100140002C30A1000130A2002208A00001302107BC
:100150000318A00AA8002208A007210828070318EE
:10016000A00AA80002302002031DB8285930280236
:10017000031DBC281120BD281820A2016430A10055
:100180002208A000013021070318A00AA8000130AE
:10019000A007003028070318A00AA8000130200299
:1001A000031DD42865302802031DD8281120D92822
:1001B00018202C30A1000130A200A4010130A300BE
:1001C0002208A000013021070318A00AA800240873
:1001D000A007230828070318A00AA800013020025E
:1001E000031DF4282E302802031DF8281120F928B9
:1001F0001820A2016430A100F430A3000130A40053
:1002000022082407A000210823070318A00A053E9E
:100210000318A00AA80002302002031D11295D3036
:100220002802031D1529112016291820A201643067
:10023000A100F430A3000130A40001302207A00087
:10024000F43021070318A00AA9002008AA000130F1
:100250002407A000F43023070318A00AA8002A08E6
:10026000A007290828070318A00AA80006302002C2
:10027000031D3C2940302802031D4029112041293B
:100280001820112011206430A5000130A000013099
:1002900025070318A00AA80001302002031D5229D7
:1002A00065302802031D5629112057291820643073
:1002B000A500250AA8000130A00000302807031877
:1002C000A00AA80001302002031D68296530280219
:1002D000031D6C2911206D291820A2016430A10092
:1002E0002208A000193021070318A00AA800003036
:1002F0002002031D7D297D302802031D8129112044
:1003000082291820A101A2010130A5002208A00025
:10031000210825070318A00AA80000302002031DA9
:10032000932901302802031D9729112098291820AC
:10033000E830A1000330A2000130A5002208A0008F
:10034000210825070318A00AA80003302002031D76
:10035000AB29E9302802031DAF291120B02918204C
:100360002C30A1000130A2000530A500250AA8000C
:100370002208A000280821070318A00AA8000130BD
:100380002002031DC52932302802031DC92911206E
:10039000CA291820A2016430A1002208A00001305F
:1003A00021070318A00A053E0318A00AA800003080
:1003B0002002031DDD296A302802031DE1291120D6
:1003C000E22918202C30A1000130A2000130A50044
:1003D0002208A000013021070318A00A25070318EE
:1003E000A00AA80001302002031DF8292E3028029F
:1003F000031DFC291120FD291820A2016430A10051
:100400006430A50001302207A000F4302107031852
:10041000A00AA9002008AA00250AA8002A08A0000E
:10042000280829070318A00AA80002302002031D8B
:100430001B2ABD302802031D1F2A1120202A182044
:10044000112011200130A6000130A7002708A000CC
:10045000643026070318A00AA80001302002031DFB
:10046000332A65302802031D372A1120382A182024
:10047000A6010130A7002708A000013026070318B5
:10048000A00A643E0318A00AA80001302002031D40
:100490004B2A65302802031D4F2A1120502A1820AC
:1004A0006430A5000130A0005E3025070318A00AC3
:1004B000A80001302002031D5F2AC2302802031D5C
:1004C000632A1120642A1820A501A7010130A60083
:1004D0002708A000260825070318A00AA800003056
:1004E0002002031D752A01302802031D792A1120DC
:1004F0007A2A18200130A500E830A6000330A700B2
:100500002708A000260825070318A00AA800033022
:100510002002031D8D2AE9302802031D912A112093
:10052000922A18200530A5002C30A6000130A70023
:100530002708A000013026070318A00A2507031882
:10054000A00AA80001302002031DA82A3230280288
:10055000031DAC2A1120AD2A18206430A500250AFD
:10056000A8000130A000F43028070318A00AA80052
:1005700002302002031DBE2A59302802031DC22A60
:100580001120C32A18200130A5002C30A60001300C
:10059000A700250AA8002708A00028082607031896
:1005A000A00AA80001302002031DD82A2E302802FC
:1005B000031DDC2A1120DD2A18206430A500A701C4
:1005C0006430A6002508643EA90001302707A0007A
:1005D000F43026070318A00A29070318A00AA80068
:1005E00003302002031DF62A20302802031DFA2AB8
:1005F0001120FB2A182011201120A2010230A10095
:100600002208003CA00021080A3C031CA003A8000B
:1006100000302002031D0E2B08302802031D122B70
:100620001120132B18202208033CA0002108E83CCD
:10063000031CA003A80003302002031D212BE63079
:100640002802031D252B1120262B18202208A0008C
:10065000013021070318A00AA8002008003CA000D0
:1006600028080A3C031CA003A80000302002031D38
:100670003B2B07302802031D3F2B1120402B182055
:1006800001302207A000F23021070318A00AA800B9
:100690002008033CA0002808E83C031CA003A80095
:1006A00001302002031D562BF4302802031D5A2B63
:1006B00011205B2B182000302202A0000130210203
:1006C000031CA003A80000302002031D692B013089
:1006D0002802031D6D2B11206E2B1820E830A1007D
:1006E0000330A20001302202A0002C302102031CA2
:1006F000A003A80002302002031D802BBC3028027A
:10070000031D842B1120852B1820A2010230A1008B
:10071000A4010130A30024082202A0002308210222
:10072000031CA003A80000302002031D992B0130F8
:100730002802031D9D2B11209E2B1820E830A100BC
:100740000330A200E730A3000330A40024082202F3
:10075000A00023082102031CA003A80000302002EF
:10076000031DB42B01302802031DB82B1120B92B17
:100770001820E830A1000330A200A301A40124083E
:100780002202A00023082102031CA003A8000330BA
:100790002002031DCD2BE8302802031DD12B112090
:1007A000D22B18202408A000013023070318A00A28
:1007B000A80020082202A00028082102031CA00390
:1007C000A80003302002031DE72BE7302802031D99
:1007D000EB2B1120EC2B182003302207A000E8306F
:1007E00021070318A00AA8000430A002E230280262
:1007F000031CA003A80002302002031D012CEE30D0
:100800002802031D052C1120062C18200330220776
:10081000A000E83021070318A00AA8002408A002BD
:1008200023082802031CA003A80007302002031D90
:100830001B2CD0302802031D1F2C1120202C182027
:1008400003302207A000E83021070318A00AA900FE
:100850002008AA0003302407A000E830230703186B
:10086000A00AA80020082A02A00028082902031CC8
:10087000A003A80003302002031D402CE83028020A
:10088000031D442C1120452C182011201120A201F9
:100890000230A1002208003CA00021080A3C031CF1
:1008A000A003A80000302002031D582C08302802A5
:1008B000031D5C2C11205D2C18202208033CA00095
:1008C0002108E83C031CA003A80003302002031DFC
:1008D0006B2CE6302802031D6F2C1120702C182081
:1008E0002208A000013021070318A00AA800200850
:1008F000003CA00028080A3C031CA003A80000300C
:100900002002031D852C07302802031D892C11208D
:100910008A2C182001302207A000F230210703188A
:10092000A00AA8002008033CA0002808E83C031CFB
:10093000A003A80001302002031DA02CF4302802DF
:10094000031DA42C1120A52C182000302202A00089
:1009500001302102031CA003A80000302002031D67
:10096000B32C01302802031DB72C1120B82C1820FD
:10097000E830A1000330A20001302202A0002C3098
:100980002102031CA003A80002302002031DCA2C70
:10099000BC302802031DCE2C1120CF2C1820A20120
:1009A0000230A100A4010130A30024082202A0000B
:1009B00023082102031CA003A80000302002031D0D
:1009C000E32C01302802031DE72C1120E82C18200D
:1009D000E830A1000330A200E730A3000330A400F8
:1009E00024082202A00023082102031CA003A8005F
:1009F00000302002031DFE2C01302802031D022DB1
:100A00001120032D1820E830A1000330A200A3011B
:100A1000A40124082202A00023082102031CA00331
:100A2000A80003302002031D172DE8302802031D03
:100A30001B2D11201C2D18202408A0000130230795
:100A40000318A00AA80020082202A00028082102FA
:100A5000031CA003A80003302002031D312DE73042
:100A60002802031D352D1120362D182003302207B2
:100A7000A000E83021070318A00AA8000430A00253
:100A8000E2302802031CA003A80002302002031D4C
:100A90004B2DEE302802031D4F2D1120502D182014
:100AA00003302207A000E83021070318A00AA8009D
:100AB0002408A00223082802031CA003A800073072
:100AC0002002031D652DD0302802031D692D112041
:100AD0006A2D182003302207A000E83021070318F0
:100AE000A00AA9002008AA0003302407A000E830CB
:100AF00023070318A00AA80020082A02A00028083B
:100B00002902031CA003A80003302002031D8A2D24
:100B1000E8302802031D8E2D11208F2D1820630030
:00000001FF
;PIC16F877A
