:020000040000FA
:100000002C288E018F008E0A8F0A8F0B08288E0BEA
:100010000A280800FA30FF3E0D280E28031D0B2881
:1000200005288E0191019115900C03188E078E0CF6
:10003000900C910B152810080800061419300120A7
:100040000610323001200800061405308E00DC3026
:1000500002200610630008008316061083120610A3
:100060001D201D201D208C01FF308D000C080C0769
:10007000003C031D3D281D203E2824200D080C07B0
:10008000FF3C031D45281D20462824200C080D0791
:10009000FF3C031D4D281D204E2824200D080C0771
:1000A0000D02031D55281D205628242001308C00E8
:1000B000FE308D000D080C07FF3C031D61281D203C
:1000C000622824208C0100300C07003C031D6A28A4
:1000D0001D206B2824200C08003E003C031D7228C4
:1000E0001D207328242001300C07013C031D7A28B1
:1000F0001D207B2824200C08013E013C031D822882
:100100001D2083282420FF300C07FF3C031D8A2874
:100110001D208B2824200C08FF3EFF3C031D922845
:100120001D209328242001308C0000300C07013C56
:10013000031D9C281D209D2824200C08003E013C06
:10014000031DA4281D20A528242001300C07023CF3
:10015000031DAC281D20AD2824200C08013E023CC4
:10016000031DB4281D20B5282420FE300C07FF3CB9
:10017000031DBC281D20BD2824200C08FE3EFF3C8A
:10018000031DC4281D20C52824200A308C000530FA
:100190008D0005300D070C02031DD0281D20D1282D
:1001A00024200D080C070F3C031DD8281D20D9283A
:1001B00024200D080C07013E103C031DE1281D20E2
:1001C000E22824200C080D070F3C031DE9281D2000
:1001D000EA2824200C080D070F3C031DF1281D20E0
:1001E000F22824200D080C07920005300C0712029B
:1001F000031DFC281D20FD2824200C080D070C07DA
:10020000920005300C070C071202031D09291D205E
:100210000A2924200D080C070D070C0792000C0872
:100220000C070C071202031D17291D201829242072
:100230001D201D201D20FF308C008D010C080C029C
:10024000003C031D25291D20262924200C080C0212
:100250000D02031D2D291D202E2924200D080D021D
:100260000D02031D35291D20362924200D080C02FE
:10027000FF3C031D3D291D203E2924200D080C02B2
:100280000C02031D45291D2046292420FF308C0027
:1002900001308D000D080D02003C031D51291D2069
:1002A000522924200D080C02FE3C031D59291D2053
:1002B0005A29242001308C008D010D080C02013CCC
:1002C000031D64291D20652924200D080C020C0241
:1002D000031D6C291D206D2924200A308C00053057
:1002E0008D000D080C020D02031D78291D207929AF
:1002F00024200D080C02053C031D80291D208129A6
:1003000024208C0100300C02003C031D89291D2093
:100310008A2924200C08003C003C031D91291D2043
:100320009229242000300C020C02031D99291D2063
:100330009A29242001308C0001300C02003C031D5E
:10034000A3291D20A42924200C08013C003C031DE6
:10035000AB291D20AC2924200C08FF3CFE3C031DCA
:10036000B3291D20B42924200C080A3C093C031D94
:10037000BB291D20BC292420FF308C0001300C0239
:10038000FE3C031DC5291D20C62924200C08FF3C66
:10039000003C031DCD291D20CE2924200A300C024B
:1003A000F53C031DD5291D20D62924200A308C00B8
:1003B00005308D0001300D070A3C043C031DE22985
:1003C0001D20E329242001300D070C02043C031DED
:1003D000EB291D20EC29242001300C07013C003CB6
:1003E0000A3C031DF5291D20F629242001300C07A5
:1003F000003C003C0B3C031DFF291D20002A24204B
:1004000001300C070C02003C013C031D092A1D2091
:100410000A2A242001300C07920001300D07120235
:10042000053C031D152A1D20162A24200D080C0248
:1004300092000D080C021202031D202A1D20212A01
:1004400024200D080C02013C003C043C031D2A2A18
:100450001D202B2A24200D080C02013C003C920098
:1004600001300D021202031D372A1D20382A2420D4
:100470000D080C02053C031D3F2A1D20402A2420A4
:1004800005300C0292000D080C021202031D4A2ACC
:100490001D204B2A24200D080C020D070C02031D01
:1004A000532A1D20542A24200D080C020D070C028B
:1004B000031D5C2A1D205D2A24200D080C020D0757
:1004C0000C0792000D080C02053E0C071202031DDA
:1004D0006B2A1D206C2A24201D201D201D201D207C
:1004E0008C010C089000053011208F0000300E02A6
:1004F000031D7C2A00300F02031D802A1D20812A43
:10050000242005308C000C089000003011208F0052
:1005100000300E02031D8E2A00300F02031D922AA6
:100520001D20932A24200C089000053011208F00F4
:1005300000300E02031D9E2A19300F02031DA22A4D
:100540001D20A32A242005308C0001300C079000C8
:10055000003011208F0000300E02031DB12A003040
:100560000F02031DB52A1D20B62A242001300C07D6
:100570009000053011208F0000300E02031DC22AAA
:100580001E300F02031DC62A1D20C72A2420053055
:100590008C000C089000003011208F0000300E02FB
:1005A000031DD42A00300F02031DD82A1D20D92A8A
:1005B00024200C089000053011208F0000300E021E
:1005C000031DE42A19300F02031DE82A1D20E92A21
:1005D000242005308C008D010C0890000D0811209E
:1005E0008F0000300E02031DF72A00300F02031D9A
:1005F000FB2A1D20FC2A242005308C0064308D004D
:100600000C0890000D0811208F0001300E02031D10
:100610000B2BF4300F02031D0F2B1D20102B242059
:100620000A308C000A308D0001300D0790000C0854
:1006300011208F0000300E02031D202B6E300F02A0
:10064000031D242B1D20252B242013308C0001306A
:100650000C079000053011208F0000300E02031DA2
:10066000332B64300F02031D372B1D20382B242021
:1006700013308C0064308D0001300C0790000D08A1
:1006800011208F0007300E02031D482BD0300F02BF
:10069000031D4C2B1D204D2B24200A308C000A30CA
:1006A0008D0001300C07920001300D0790001208F8
:1006B00011208F0000300E02031D602B79300F02D5
:0C06C000031D642B1D20652B242063000B
:00000001FF
;PIC16F84A
