:020000040000FA
:1000000020288E0191008E0A910A910B08288E0BF0
:100010000A280800FA30FF3E0D280E28031D0B2881
:10002000052806141E30012006101E30012008008D
:10003000061405308E00DC30022006106300080034
:100040008316061083120610112011208C018D01D9
:100050001120E8308C0003308D0003300D02031DA9
:100060003328E8300C0203183728182038281120CC
:1000700003300D02031D3E28E9300C02031842280C
:100080001120432818208C018D010D088E000130AD
:100090000C0703188E0A910000300E02031D52282F
:1000A0000130110203185628182057281120E73074
:1000B0008C0003308D000D088E0001300C070318F2
:1000C0008E0A910003300E02031D6828E8301102E9
:1000D00003186C2818206D2811200D088E0001309F
:1000E0000C0703188E0A910003300E02031D7A28B4
:1000F000E930110203187E2811207F2818208C0176
:100100008D018F0190010D081002031D89280C0834
:100110000F0203188D2818208E2811208C01013021
:100120008D009001FF308F000D081002031D9A28EA
:100130000C080F0203189E2811209F281820100871
:100140000D02031DA5280F080C020318A92818206A
:10015000AA281120E8308C0003308D00E8308F0091
:10016000033090000D081002031DB8280C080F0280
:100170000318BC281820BD281120E9308C0003305A
:100180008D00E8308F00033090000D081002031D31
:10019000CB280C080F020318CF281120D0281820D4
:1001A0008D0101308C008F01900110088E0001300C
:1001B0000F0703188E0A91000D080E02031DE22896
:1001C0000C0811020318E6281820E72811208C01DA
:1001D00001308D009001FE308F0010088E0001303C
:1001E0000F0703188E0A91000D080E02031DFA284E
:1001F0000C0811020318FE281120FF2818201008EF
:100200008E0002300F0703188E0A91000D080E02AF
:10021000031D0C290C08110203181029182011299C
:100220001120E9308C0003308D00E8308F0003305E
:10023000900010088E0001300F0703188E0A9100FD
:100240000D080E02031D26290C08110203182A2985
:1002500018202B291120E9308C0003308D00E73065
:100260008F000330900010088E0001300F07031834
:100270008E0A91000D080E02031D40290C08110280
:10028000031844291120452918208C018D018F0164
:1002900090010D088E0001300C0703188E0A9200A1
:1002A0000E08930010088E0001300F0703188E0A05
:1002B000910013080E02031D5F2912081102031892
:1002C00063291820642911208D01FE308C009001D3
:1002D000FE308F000D088E0001300C0703188E0AC7
:1002E00092000E08930010088E0001300F070318CB
:1002F0008E0A910013080E02031D802912081102B4
:10030000031884291820852911200D088E00023039
:100310000C0703188E0A92000E08930010088E0036
:1003200001300F0703188E0A910013080E02031DF7
:100330009B291208110203189F291120A0291820B7
:10034000E8308C0003308D00E8308F0003309000DF
:100350000D088E0001300C0703188E0A92000E085B
:10036000930010088E0002300F0703188E0A9100C8
:1003700013080E02031DBE29120811020318C22918
:100380001820C32911200D088E0001300C07031816
:100390008E0A92000E08930010088E0001300F079D
:1003A00003188E0A910013080E02031DD9291208A2
:1003B00011020318DD291820DE2911200D088E00F6
:1003C00002300C0703188E0A92000E0893001008E2
:1003D0008E0001300F0703188E0A910013080E02D9
:1003E000031DF429120811020318F8291120F92914
:0403F000182063006E
:00000001FF
;PIC16F84
