:020000040000FA
:1000000011288C018D008C0A8D0A8D0B08288C0B11
:100010000A280800FA30FF3E0D280E28031D0B2881
:100020000528063083168600831204300605861CD8
:10003000031503192928061407308C00D03002203C
:1000400006100430060586180311031928282128F4
:10005000482808300605861C03150319472806148E
:1000600003308C00E8300220061003308C00E830AA
:100070000220061403308C00E830022006100830FD
:10008000060586180311031946283F28482806103C
:08009000643001201428630014
:00000001FF
;PIC16FXXXX
