:020000040000FA
:1000000011288C018D008C0A8D0A8D0B08288C0B11
:100010000A280800FA30FF3E0D280E28031D0B2881
:1000200005280E3083168600831204300605861CD0
:10003000031504300605861C031503192D28061424
:1000400007308C00D03002200610043006058618D8
:10005000031103192C2825284C2808300605861C76
:10006000031503194B28061403308C00E8300220D6
:10007000061003308C00E8300220061403308C0098
:10008000E83002200610083006058618031103190F
:100090004A2843284C2806106430012014286300A5
:00000001FF
;PIC16FXXXX
