:020000040000FA
:100000004B288E018F008E0A8F0A8F0B08288E0BCB
:100010000A280800FA30FF3E0D280E28031D0B2881
:1000200005280C0886008514023001208510080080
:10003000051011200800051411200800FC3083165B
:100040008500860183120510851001308E00F43082
:10005000022030308C0018201430012030308C0009
:1000600018200530012030308C001820013001208C
:1000700038308C00182008308C00182001308C009B
:10008000182006308C0018200C308C00182002300C
:100090008C00182008001E2048308C001B20653082
:1000A0008C001B206C308C001B206C308C001B20C3
:1000B0006F308C001B20A0308C001B2057308C0030
:1000C0001B206F308C001B2072308C001B206C308A
:1000D0008C001B2064308C001B20C0308C0018204A
:1000E00050308C001B2069308C001B2063308C004A
:1000F0001B2050308C001B2061308C001B20733083
:100100008C001B20A0308C001B2030308C001B206A
:100110002E308C001B2035308C001B202E308C00A4
:100120001B2037308C001B20A0308C001B2003309C
:100130008D003E308C001B2003308E00E830022002
:100140008D0300300D02031D992801308C0018200A
:040150004C286300D4
:00000001FF
;PIC16FXXXX
