:020000040000FA
:1000000032288312A001080001308316A000831259
:10001000A001080001308316A0008312A008031D70
:1000200012280800A00108008316A0010800013072
:100030008312A0008316A001080001308312A000E3
:100040008316A008031D25280800A0010800013020
:100050008312A0008316A008031D2F280800831216
:10006000A0010800A00102308316A0008312A001A5
:10007000A001A001A00102308316A0008312A001FC
:100080000130A000A001DE308316A0008312060319
:10009000031D4C280530860002300602031D53283C
:1000A00005308316860083120603031D5A28033089
:1000B00086005C28043086000603031D6328033095
:1000C0008316860066280430831686008312060392
:1000D000031D6D28033086007028043083168600C7
:1000E00083120603031D7728033086008028023020
:1000F0000602031D7E280430860080280530860015
:100100000603031D872803308316860090280230DB
:100110000602031D8E2804308600902805308600D4
:1001200083120603031D9828043083168600A22834
:10013000023083120602031DA02803308600A22885
:100140000530860083120603031DA92803308600AC
:10015000B32802300602031DB1280430831686003E
:10016000B3280530860083120603031DBA28033026
:100170008600C42802300602031DC128053086000F
:10018000C4280430831686008312A001A001013028
:100190008316A0008312C728A0018608031DD52856
:1001A00001308316A0008312CD28A0018316860893
:1001B000031DDE2801308312A000D6280120042070
:0C01C0000A20142017201D2027206300B7
:00000001FF
;PIC16C63
