:020000040000FA
:1000000020288E018F008E0A8F0A8F0B08288E0BF6
:100010000A280800FA30FF3E0D280E28031D0B2881
:10002000052806141930012006101E300120080092
:10003000061405308E00DC30022006106300080034
:100040008316061083120610112011201120112092
:100050001120112011200A308C000A300C02031DDF
:1000600033281120342818208C08031D3928182023
:100070003A2811200A300C02031940281820412880
:1000800011200A308C000A300C02031D492811206F
:100090004A2818208C08031D4F28182050281120AA
:1000A0000A300C02031956281820572811208C01F9
:1000B000FF308D000C080C02031D60281120612800
:1000C00018200C080D02031D67281820682811202D
:1000D0000C080C0203196E2818206F281120FF301D
:1000E0008C000C080C02031D77281120782818209A
:1000F0000C080D02031D7E2811207F2818200C08F3
:100100000C02031985281820862811200A308C003B
:100110000A300C02031D8E2811208F281820013070
:100120000C070B3C031D962811209728182001303E
:100130000C07900001300C071002031DA1281120AC
:10014000A228182001300C07900002300C07100282
:10015000031DAC281820AD281120112011201120DA
:100160001120112001308C00FF308D000C080C0292
:100170000318BC281820BD2811200C080D020318F4
:10018000C3281820C42811200D080D020318CA28FE
:100190001820CB2811200D080C020318D12811209B
:1001A000D22818208C01FF308D000C080C02031897
:1001B000DB281820DC2811200C080D020318E22887
:1001C0001820E32811200D080D020318E928182033
:1001D000EA2811200D080C020318F0281120F1283C
:1001E00018208C0101308D000C080C020318FA282D
:1001F0001820FB2811200C080D02031801291820D3
:10020000022911200D080D020318082918200929B8
:1002100011200D080C0203180F2911201029182095
:100220008C018D010C080C020318182918201929BB
:1002300011200C080D0203181F2918202029112055
:100240000D080D02031826291820272911200D0852
:100250000C0203182D2918202E291120FF308C00A4
:10026000FF308D000C080C0203183829182039299A
:1002700011200C080D0203183F29182040291120D5
:100280000D080D02031846291820472911200D08D2
:100290000C0203184D2918204E29112001308C0022
:1002A0000C08003C031856291120572918200C0867
:1002B000013C03185D2918205E291120112011200E
:1002C00001300C020318662918206729112002301A
:1002D0000C0203186D2911206E291820FF300C0222
:1002E000031874291120752918200A308C000A304F
:1002F0000C02112001300C07112001300C070A3CC0
:10030000031C842918208529112001300C070B3C7F
:10031000031C8C2911208D29182001300C07FE3C6C
:10032000031C94291120952918200A308C000130D3
:100330000C07003C03189E2911209F29182001302A
:100340000C070A3C0318A6291120A7291820013000
:100350000C070B3C0318AE291820AF2911200130DF
:100360000C070C3C0318B6291820B72911200130BE
:100370000C07112001300C078F000C080F02031826
:10038000C3291820C429112001300C070C020318BE
:10039000CB291120CC29182001300C079000023005
:1003A0000C078F0010080F020318D8291820D9292C
:1003B000112001300C07900001300C078F0010084D
:1003C0000F020318E5291820E629112002300C0736
:1003D000900001300C078F0010080F020318F2295B
:1003E0001120F32918201120112011208C018D01DA
:1003F0000C080C020318FE291820FF2911200D08F3
:100400000C020318052A1820062A11200C080D02D8
:1004100003180C2A18200D2A1120FF308C00FF3001
:100420008D000C080C020318172A1820182A112016
:100430000D080C0203181E2A18201F2A11200C0870
:100440000D020318252A1820262A112001308C00BD
:10045000112001300C0203182F2A1820302A1120F5
:10046000FF300C020318362A1120372A18200C08F6
:10047000003C03183D2A11203E2A182011200A3082
:100480008C0001300C070C020318482A1120492A5D
:10049000182001300C078F000C080F020318522A95
:1004A0001820532A112001300C07900002300C074D
:1004B000100203185D2A11205E2A182001300C0753
:1004C000900001300C0710020318682A1820692ACE
:1004D000112002300C07900001300C0710020318A5
:1004E000732A1820742A11201120112011200530A0
:1004F0008C0006308D000C080C02031C812A112090
:10050000822A18200D080C02031C882A1820892A28
:1005100011200C080D02031C8F2A1120902A18208C
:100520000C080C02031C962A1120972A18200C088C
:10053000063C031C9D2A11209E2A18200C08043C0E
:0C054000031CA42A1820A52A1120630027
:00000001FF
;PIC16F84
