:020000040000FA
:1000000050288E0184008E0A840A840B08288E0BE7
:100010000A280800FA30FF3E0D280E28031D0B2881
:10002000052806141E300120061046300120080065
:10003000061405308E00DC30022006106300080034
:100040000530900008008C08031D282808002A2885
:100050000A309000080003340C0A08000D088E00D6
:1000600002300C0703188E0A08000D088E000C08D9
:1000700008000315080003110C1C031508000C0AE6
:1000800008000D088E0002300C0703188E0A0800C5
:10009000FF308316850083120C080800013E08001B
:1000A00083160610831206109001202005301002DE
:1000B000031D5C2811205D281820013090008C0160
:1000C00023201003031D6628112067281820013003
:1000D0008C0023200A301002031D70281120712883
:1000E00018202B20910003301102031D79281120C4
:1000F0007A2818202B20013E910004301102031DA4
:1001000083281120842818202B20023E95002B20C4
:100110001507023E91000A301102031D912811209B
:100120009228182001308C002C20910002301102FE
:10013000031D9C2811209D28182001308C002C20A4
:10014000950002308C002C2015079100053011021B
:10015000031DAC281120AD28182001308C002C2064
:10016000013E950002308C002C20960003308C005C
:100170002C201607150791000A301102031DC22812
:100180001120C32818200A30910011088C002C205F
:1001900091000B301102031DCF281120D028182008
:1001A00001308C008D012E2092000E089300130860
:1001B000031DDC2803301202031DE0281120E12872
:1001C000182093010A30920012088C0013088D0049
:1001D0002E2092000E0893001308031DF1280C3006
:1001E0001202031DF5281120F628182093010A3069
:1001F000920012088C0013088D00352092000E0822
:1002000093001308031D06290A301202031D0A2950
:1002100011200B291820141001308C008D010230A0
:100220008F003920141003191414141C19291120DB
:100230001A2918200C103B20941003199414941CB4
:1002400023291120242918200C143B209410031971
:10025000941494182D2911202E2918200C143B20B9
:100260001411031914150C103B20141903159410C4
:1002700003199414941C3E2911203F29182005309D
:100280008C003F20950005308C008D014120150722
:1002900003188E0A92000E0893001308031D5229BA
:1002A0000D301202031D562911205729182006303F
:1002B0008C004820013E910007301102031D622985
:1002C000112063291820013083168500063083121F
:1002D0008C002C20910007301102031D7129112080
:1002E0007229182001304E20910002301102031DA6
:1002F0007B2911207C291820C8308C002C208C00F0
:100300002C209100CA301102031D8829112089294F
:04031000182063004E
:00000001FF
;PIC16F84A
