:020000040000FA
:10000000362890018400900A840A840B0828900BFB
:100010000A280800FA30FF3E0D280E28031D0B2881
:10002000052806141E300120061046300120080065
:10003000061405309000DC30022006106300080032
:10004000803090004030080083128E018F019001B3
:1000500000300D02031932280C088E0703188F0A8E
:100060008D0B2C280F0890000E0808008316061030
:100070008312061011071105910180019109910366
:10008000110A110B0000110F00001104110891005A
:10009000110D110C1102110E11061110111411186D
:1000A0000000111C0000003E003964005728003891
:1000B0000030003C003A4230A0004130A000413006
:1000C0002002031D652811206628182091010530A3
:1000D000910005301102031D6F281120702818208F
:1000E00014101414141C7628112077281820941446
:1000F000941094187D2811207E28182094149418A8
:100100009410941885281120862818209101033016
:10011000910003301102031D8F2811209028182010
:100120009101911508301102031D9828112099287A
:1001300018209B2863000A309100910B9D28941889
:10014000A3281120A42818200A309100910BA6287A
:100150009418AC281120AD28182094142020920067
:100160001008930080301302031DB828403012029B
:10017000031DBC281120BD28182005308C000A3032
:100180008D0024209200100893001308031DCA2834
:1001900032301202031DCE281120CF281820630010
:00000001FF
;PIC16F84A
