:020000040000FA
:1000000020288E0184008E0A840A840B08288E0B17
:100010000A280800FA30FF3E0D280E28031D0B2881
:10002000052806141430012006102830012008008D
:10003000061407308E00D03002200610630008003E
:100040008316061083120610112011201120112092
:1000500011201120112011200C148C1011200C0CD7
:100060000C060139031D36281820372811201120CD
:100070000C0C0C06013903193F28112040281820C8
:100080000C148C100C1C46281120472818200C1822
:100090004B2818204C2811208C1C5028182051283F
:1000A00011208C1855281120562818200C148C105B
:1000B00001300C058C1C031504300C1C03050319BE
:1000C000632818206428112001300C058C1C0315AE
:1000D00004300C1C030503196F2818207028112008
:1000E0000C1C74281120752818200C187928182049
:1000F0007A28112002300C050C1C03150C11031971
:100100000C1501300C058C1C031504300C1903056B
:1001100003198C2811208D28182002300C050C1C86
:1001200003150C1103190C1501300C058C1C03155B
:1001300004300C190305031D9F281820A028112046
:10014000112011200C100C18A7281120A828182005
:100150000C1CAC281820AD281120112011201120D2
:10016000112011200C108C1002300C050C1C0315F2
:10017000031DBC281120BD2818200C108C1402303F
:100180000C050C1C0315031DC7281120C8281820B6
:100190000C148C1002300C050C1C0315031DD22806
:1001A0001120D32818200C148C1402300C050C1CC0
:1001B00003150319DD281120DE2818200C1011204A
:1001C00011200C18E5281120E62818200C18EA2820
:1001D0001120EB2818200C14112011200C1CF228DF
:1001E0001120F32818200C1CF7281120F8281820BB
:1001F0000C108C1002300C050C1C03110319022981
:1002000011200329182001300C058C1C031103193F
:100210000B2911200C29182002300C050C18031191
:10022000031D142911201529182011201120112037
:100230001120112011200C108C1002300C050C180C
:100240000311031D25291120262918200C108C14B8
:1002500002300C050C180311031930291120312923
:1002600018200C148C1002300C050C180311031903
:100270003B2911203C2918200C148C1402300C0549
:100280000C180311031946291120472918200C10B6
:100290000C184C2911204D2918200C185129112017
:1002A00052291820112011200C140C1C592911203E
:1002B0005A2918200C1C5E2911205F2918201120B2
:1002C00011200C108C1002300C050C180315031DA6
:1002D0006B2911206C29182001300C058C1803158E
:1002E000031D742911207529182002300C050C1CDF
:1002F0000315031D7D2911207E29182011201120AE
:1003000011201120112011200C108C100C0C0C0647
:100310000139031D8D2911208E2918200C108C14F1
:100320000C0C0C0601390319972911209829182063
:100330000C148C100C0C0C0601390319A129112086
:10034000A22918200C148C140C0C0C060139031D66
:10035000AB291120AC2918200C100C18B129112040
:10036000B22918200C18B6291120B72918200C180A
:10037000BB291120BC2918200C18C0291120C12923
:1003800018200C140C1CC6291120C72918200C1C7D
:10039000CB291120CC2918200C1CD0291120D129BF
:1003A00018200C1CD5291120D62918200C108C10CF
:1003B0000C0C0C060139031DDF291120E02918203F
:1003C0000C0D0C060239031DE7291120E82918201D
:1003D0000C0C0C060139031DEF291120F0291820FF
:1003E0000C100C18F5291120F62918200C140C1CDF
:1003F000FB291120FC2918200C1001308C060C1C44
:10040000032A1120042A18208D138D1B092A11207C
:100410000A2A18208D178D1F0F2A1120102A182044
:100420008D1380308D068D1F172A1120182A182051
:100430000C108C1002300C050C180311031D222A1D
:100440001120232A182002300C050C180311031D5B
:100450002B2A11202C2A18200C148C1002300C0589
:100460000C1C0311031D362A1120372A18200230D4
:100470000C050C1C0311031D3F2A1120402A1820D3
:100480000C108C100C0C0C0601390C1103190C15F6
:1004900001300C058C1C03118C1C03150C1C031162
:1004A00004300C1D03050319572A1120582A18205F
:1004B00001300C058C1C03118C1C03150C1C031142
:1004C0000C1103190C150C0C0C06013904300C1D11
:1004D000030503196D2A11206E2A18200C148C10A4
:1004E0000C0C0C0601390C1103190C1501300C050C
:1004F0008C1C03118C1C03150C1C031104300C1DE7
:1005000003050319852A1120862A182001300C05BD
:100510008C1C03118C1C03150C1C03110C110319EA
:100520000C150C0C0C06013904300C1D03050319C5
:100530009B2A11209C2A18200C148C140C0C0C06DD
:1005400001390C1103190C1501300C058C1C031119
:100550008C1C03150C1C031104300C1D030503191E
:10056000B32A1120B42A182001300C058C1C031169
:100570008C1C03150C1C03110C1103190C150C0C0D
:100580000C06013904300C1D03050319C92A11207A
:06059000CA2A18206300D6
:00000001FF
;PIC16F84A
