:020000040000FA
:10000000202890018400900A840A840B0828900B11
:100010000A280800FA30FF3E0D280E28031D0B2881
:10002000052806141E300120061046300120080065
:10003000061405309000DC30022006106300080032
:10004000831606108312061011208C018C0A1120D1
:100050008C0A02300C0203192E2818208C018C0106
:100060008C0A11208C0A02300C020319382818203F
:100070008C018C0A11208C0A02300C0203194128D1
:1000800018208C018C0A11208C0A02300C020319F2
:100090004A2818208C018C0A11208C0A02300C028C
:1000A0000319532818200F140F1C58281120592801
:1000B00018200F100F1C5E2818205F2811200F1029
:1000C0000F1864281120652818200F140F186A28AB
:1000D00018206B2811200F148C010F1C72288C0A19
:1000E00011208C0A02300C020319772818200F10F7
:1000F0000F1C7D281820182018208C010F140F1CAD
:1001000085288C0A11208C0A882818208C0A18202F
:1001100002300C0203198D2818208C010F140F1CBB
:1001200095288C0A11208C0A9C280F1C9A281820CC
:1001300018209C281820182002300C020319A1282E
:1001400018208C010F140F18A82818201820B02888
:100150000F1CAE288C0A11208C0AB02818201820F9
:1001600002300C020319B52818208C010F140F1847
:10017000BC2818201820C9280F18C12818201820BA
:10018000C9280F18C62818201820C9288C0A112041
:100190008C0A02300C020319CE2818200F148F1479
:1001A00002300F050F1C03150319D8281120D92878
:1001B000182002300F050F1C0311031DE128182021
:1001C000E228112002300F050F1C0315031DEA2839
:1001D0001820EB2811200C0A0C020318F12811201A
:1001E000F22818208C0102300F050F1C031503198B
:1001F000FC288C0A11208C0A02300C0203190129F8
:10020000182002300F050F1C0311031D0A291820A6
:10021000182018208C0102300F050F1C031503193C
:1002200015298C0A11208C0A182918208C0A1820EC
:1002300002300C0203191D2918208C0102300F0511
:100240000F1C0315031928298C0A11208C0A332945
:1002500002300F050F1C031503193129182018202F
:1002600033291820182002300C02031938291820CD
:100270008C010F1402300F050F1C0311031D4329BD
:10028000182018204F2902300F050F1C03150319E1
:100290004D298C0A11208C0A4F2918201820023071
:1002A0000C020319542918208C010F1401300F057A
:1002B0008F1C0311031D5F29182018207429013099
:1002C0000F058F1C0311031D68291820182074299D
:1002D00001300F058F1C0311031D712918201820F0
:1002E00074298C0A11208C0A02300C020319792916
:1002F00018200F108C0101300C02031882291120E4
:100300008C0A7B290C030319862918208C011120E3
:100310008C0A0C0303198D2918208C010F1411204D
:100320008C0A0F1C8F290C030319972918208C01A4
:1003300011208C0A0C08013C0318982902300C0289
:100340000319A32918208D018C018D010D08003C93
:10035000031CAE2911208C0A8D0AA6290C0303194F
:10036000B22918208D018C018D010D08033C031C5E
:10037000BD2911208C0A8D0AB52904300C020319FD
:10038000C22918208D018C0101308D000D08003C20
:10039000031CCE2911208C0A8D0AC6298C0803194A
:1003A000D22918208D018E018C018D010D080E02BD
:1003B000031CDE2911208C0A8D0AD6290C0303198F
:1003C000E22918208D0103308E008C018D010D086B
:1003D0000E02031CEF2911208C0A8D0AE729043034
:0A03E0000C020319F4291820630031
:00000001FF
;PIC16F84A
