:020000040000FA
:100000001F0A6A002B00AA02AB02EB02080AEA02EE
:100010000A0A0008FA0C2C000000EC020C0A050A7F
:1000200006051E0C01090604460C01090008060518
:10003000050C2A00DC0C0209060403000008FE0C73
:1000400006000604C8014801680040006802E80094
:100050008802C8020000C803000008010802280046
:100060004803080388008803880108040805080677
:10007000000008070000000E04003E0A000D000CFE
:10008000000F420C2000410C2000410C800043076F
:100090004B0A10094C0A17096800050C2800050CCA
:1000A00088004307550A1009560A1709090409056B
:1000B00009075C0A10095D0A1709290529042906A0
:1000C000630A1009640A1709290529062904290663
:1000D0006B0A10096C0A17096800030C2800030C4E
:1000E00088004307750A1009760A17096800680531
:1000F000080C880043077E0A10097F0A1709810A45
:1001000003000A0C2800E802830A2906890A10095C
:100110008A0A17090A0C2800E8028C0A2906920AA2
:0A0120001009930A170929050300CE
:00000001FF
;PIC10F202
