:020000040000FA
:100000002228A201A300A20AA30AA30B0828A20B7C
:100010000A280800FA30FF3E0D280E28031D0B2881
:100020000528831206141E30012006101E30012000
:100030000800831206140530A200DC3002200610EE
:100040006300080083160610831206100130A0001A
:100050000330A10001302002031D30281120312877
:10006000192003302102031D3728112038281920B8
:100070000130A00003308316A0000130831220025B
:10008000031D44281120452819200330831620021F
:10009000031D4C2811204D2819200330A0000130E9
:1000A0008312A00001302002031D58281120592876
:1000B0001920033083162002031D602811206128B7
:1000C00019200130A0000230A10001302002031DE0
:1000D0006B2811206C28192002302102031D722880
:1000E00011207328192001308312A000013020074D
:1000F0008316A00002302002031D802811208128D1
:10010000192001308312A00002308316A0000130B4
:100110008312200783162007A00004302002031D4D
:0A0120009328112094281920630091
:00000001FF
;PIC16C63
