:020000040000FA
:100000002228A2018400A20A840A840B0828A20BD9
:100010000A280800FA30FF3E0D280E28031D0B2881
:100020000528831206140A30012006100F30012023
:100030000800831206140530A200DC3002200610EE
:100040006300080083160610831206100130A0001A
:100050000330A1002003031D2F2811203028192070
:1000600003302102031D36281120372819200130C2
:10007000A00003308316A00083122003031D422832
:10008000112043281920033083162002031D4A281B
:1000900011204B2819200330A00001308312A0004A
:1000A0002003031D552811205628192003308316DC
:1000B0002002031D5D2811205E2819200130A000B8
:1000C0000230A1002003031D672811206828192091
:1000D00002302102031D6E2811206F2819200130E3
:1000E0008312A000013020078316A00002302002F6
:1000F000031D7C2811207D28192001308312A000C7
:1001000002308316A00001308312200783162007D7
:10011000A00004302002031D8F28112090281920F0
:0201200063007A
:00000001FF
;PIC16C63
