:020000040000FA
:100000002228A2018400A20A840A840B0828A20BD9
:100010000A280800FA30FF3E0D280E28031D0B2881
:100020000528831206141E30012006101E30012000
:100030000800831206140530A200DC3002200610EE
:100040006300080083160610831206100130A0001A
:100050000330A1002003031D2F2811203028192070
:1000600003302102031D36281120372819200130C2
:10007000A00003308316A00083122003031D422832
:10008000112043281920033083162002031D4A281B
:1000900011204B28192003308316A0000130831251
:1000A000A0002003031D56281120572819200330D3
:1000B00083162002031D5E2811205F2819200130BD
:1000C0008316A0000230A1002003031D692811201F
:1000D0006A281920023083162102031D712811207D
:1000E000722819200130A000200A8316A0000230D7
:1000F0002002031D7D2811207E2819200130A00038
:1001000002308316A0008312200A83162007A00065
:1001100004302002031D8E2811208F28192063002F
:00000001FF
;PIC16C63
