:020000040000FA
:100000004E2890018400900A840A840B0828900BE3
:100010000A280800FA30FF3E0D280E28031D0B2881
:1000200005280C0886008514023001208510080080
:1000300005100D088C001120080005148C001120FB
:100040000800FC3083168500860183120510851098
:1000500001309000F430022030308D001820143030
:10006000012030308D0018200530012030308D0007
:1000700018200130012038308D00182008308D0004
:10008000182001308D00182006308D0018200C300B
:100090008D00182002308D001820080021204830E3
:1000A0001D2065301D206C301D206C301D206F30F0
:1000B0001D2020301D2057301D206F301D20723034
:1000C0001D206C301D2064301D20C0308D00182094
:1000D00050301D2069301D2063301D2050301D2000
:1000E00061301D2073301D2020301D2030301D2038
:1000F0002E301D2036301D202E301D2020301D209A
:1001000003308F003E301D2003309000E830022085
:100110008F038F08031D822801308D0018204F287F
:0201200063007A
:00000001FF
;PIC16F84A
