:020000040000FA
:100000004E288F0190008F0A900A900B08288F0BC2
:100010000A280800FA30FF3E0D280E28031D0B2881
:1000200005280D088600851402300120851008007F
:1000300005100E088D001120080005148D001120F8
:100040000800FC3083168500860183120510851098
:1000500001308F00F430022030308E001820143030
:10006000012030308E0018200530012030308E0005
:1000700018200130012038308E00182008308E0002
:10008000182001308E00182006308E0018200C3009
:100090008E00182002308E001820080021204830E1
:1000A0001D2065301D206C301D206C301D206F30F0
:1000B0001D2020301D2057301D206F301D20723034
:1000C0001D206C301D2064301D20C0308E00182093
:1000D00050301D2069301D2063301D2050301D2000
:1000E00061301D2073301D2020301D2030301D2038
:1000F0002E301D2036301D202E301D2020301D209A
:1001000003308C003E301D2003308F00E830022089
:100110008C0300300C02031D822801308E00182051
:040120004F28630001
:00000001FF
;PIC16F84
