:02000000B22B21
:10000600103083122005C1004108103A0130031D4B
:100016000030C0004018112806121228061620309B
:100026002005C1004108203A0130031D0030C00000
:1000360040181F2886122028861640302005C10049
:100046004108403A0130031D0030C00040182D28F9
:1000560006132E28061780302005C1004108803A75
:100066000130031D0030C00040183B2886133C2891
:10007600861786150330CC009730CD00CD0B41286E
:10008600CC0B41280000000086110330CC009730CD
:10009600CD00CD0B4C28CC0B4C28000000000800EE
:1000A60083121F08A00003201F08A000A00D201027
:1000B600A00D2010A00D2010A00D20100320080078
:0C00C600831206111D089F005320080043
:1000D20083129E011D08093C0318742810309E07E4
:1000E2000A309D026B281D081E07C00040089E00B2
:0200F200080004
:0C00F400831206151D089F005320080011
:10010000C828443083129D007A204F309D007A2009
:100110004D309D007A20E4284C309D007A205530E7
:100120009D007A204E309D007A20E4284D309D00BD
:100130007A2041309D007A2052309D007A20E428B8
:100140004D309D007A2049309D007A2045309D0039
:100150007A20E4284A309D007A2055309D007A208C
:1001600045309D007A20E42856309D007A204930A1
:100170009D007A2045309D007A20E42853309D0070
:100180007A2041309D007A2042309D007A20E42878
:100190000D08013A031981280D08023A03198C2829
:1001A0000D08033A031996280D08043A0319A028EC
:1001B0000D08053A0319AA280D08063A0319B428B0
:0A01C0000D08073A0319BE280800D5
:1001CA0083120E08C10004304102031CEF280430D8
:1001DA00C102E8284108003A031DF6280130C00090
:0601EA00F728C001080027
:1001F00083121B089D00692040089B0040089D0059
:100200009D0C9D139D0C9D139D0C9D139D0C9D138A
:1002100030309D077A200F301B059D0030309D0740
:040220007A20080038
:1002240083121C08003A031D1C291B08803E9D00F4
:10023400632022291B08803E9D0040309D076320D7
:020244000800B0
:1002460083160612861206138613061186110230CD
:10025600CB000430CC00BA30CD00CD0B3029CC0B0E
:100266003029CB0B30290000831206118611273066
:10027600CC00F530CD00CD0B3E29CC0B3E293030DD
:10028600A00003200730CC007D30CD00CD0B4929DE
:10029600CC0B49293030A00003200230CC004B3073
:1002A600CD00CD0B5429CC0B54293030A0000320AF
:1002B6002030A000032028309D00632008309D00D8
:1002C600632006309D0063200C309D0063200130C2
:0602D6009D0063200800FA
:0C02DC00831210088A000F08820008003E
:1002E8008312051C7C29851C7C290130C1007D29CD
:1002F800C1014108003A031DBA290C309D00632052
:1003080005188E299A0A1A08170203188D29160843
:100318009A009A299A0316081A02031C98291A089F
:10032800FF3A031998299A2917089A0018089B0078
:1003380019089C0012211108063A031DA7291A085A
:100348008D008020AB2983121A089B00F820033007
:10035800CB008A30CC005530CD00CD0BB129CC0B69
:10036800B129CB0BB12900000000742983120519AB
:10037800D129910A0519CB290D30CC00FB30CD00CD
:10038800CD0BC429CC0BC42900000000BE291A08D3
:1003980017020318D12917089A001108063A031DF5
:1003A800D629980A980A18089B0019089C00122157
:0C03B8000E309D0063201A08C0000800F1
:1003C4008312C201083042020318FC29803016054A
:1003D400C1004108803A0130031D0030C0004018BC
:1003E400F5290610F62906148614960D16108610A3
:1003F400C20AE42983160614831286140618042AF2
:100404001710052A171486108316061000301718C3
:060414000130C0000800E9
:10041A008312061486148316861006108312061099
:04042A008610080030
:0A042E00831206108614061408005D
:1004380083120C08023A031D2B2AE52040080319F1
:10044800282A1D30C000412A1C30C000412A0C084F
:10045800043A03193C2A0C08063A03193C2A0C08EA
:10046800093A03193C2A0C080B3A03193C2A3F2A7B
:0C0478001E30C000412A1F30C0000800E8
:100484008312970183160614C10108304102031830
:10049400552A83128614970D1710061C522A171416
:1004A4008610C10A472A8316061016080130031D58
:1004B4000030C0004018612A83120610632A831298
:0C04C4000614861486101708C0000800FB
:1004D000831297011608093C0318732A10309602FC
:1004E0000A3097076A2A16081707C00040089700C5
:0204F000080002
:1004F2006E218A110A128000840A8F0A0319900A57
:08050200C003031D792A080063
:10050A00013083129B009C01122113089B00F820E2
:10051A002F309D007A200C089B00F8202F309D0078
:10052A007A200E089B00F82020309D007A20203087
:10053A009D007A2020309D007A208020013083128D
:10054A009B0001309C00122114089B00F8203A30CD
:10055A009D007A2015089B00F8203A309D007A20E9
:08056A0012089B00F8200800B4
:10057200073083129B0001309C0012219B01F8205E
:100582000E309D0063200730110203182F2B110833
:10059200013A031DD82A960163309700073098006C
:1005A20099010E089A00742140088E00C82A110889
:1005B200023A031DE92A013096000C3097000430FC
:1005C200980099010C089A00742140088C00D82ADE
:1005D2001108033A031DFB2A1C2240089700013030
:1005E200960001309800990113089A00742140087E
:1005F2009300E92A1108043A031D0C2B96011730C7
:100602009700013098000130990014089A00742173
:1006120040089400FB2A1108053A031D1D2B960180
:100622003B309700043098000130990015089A0079
:100632007421400895000C2B1108063A031D2E2B3D
:1006420001309600073097000C30980099010D0890
:100652009A00742140088D001D2BC42A0C309D0085
:040662006320080009
:100666008B13831605148514051585150D22D030B8
:100676009600E22107309600E22190309600E221B2
:06068600172223210800E9
:10068C000D22D0309600E2219601E2219601E22162
:10069C0015089D00692040089600E22114089D0071
:1006AC00692040089600E2210D089600E22113080B
:1006BC009D00692040089600E2210C089D006920ED
:1006CC0040089600E2210E089D0069204008960023
:0606DC00E22117220800D4
:1006E2000D22D0309600E2219601E2210D22D13076
:1006F2009600E221013096004222400896006822CC
:10070200400892000130960042224008960068227A
:100712004008950001309600422240089600682267
:100722004008940001309600422240088D000130BA
:100732009600422240089600682240089300013049
:100742009600422240089600682240088C00013040
:100752009600422240089600682240088E00172226
:0207620008008D
:1007640033230519C62B013091000519C42B0D3014
:10077400CC00FB30CD00CD0BBD2BCC0BBD2B000032
:100784000000B72BB922462371238522851DCB2B6C
:0C079400C82B8519CE2BCB2BB32BCF2B01
:02400E00FA3F77
:00000001FF
